{
  "_format": "hh-sol-artifact-1",
  "contractName": "SupplyChainEscrow",
  "sourceName": "contracts/SupplyChainEscrow.sol",
  "abi": [
    {
      "inputs": [
        {
          "internalType": "address payable",
          "name": "_platformOwner",
          "type": "address"
        }
      ],
      "stateMutability": "nonpayable",
      "type": "constructor"
    },
    {
      "inputs": [
        {
          "internalType": "uint256",
          "name": "orderId",
          "type": "uint256"
        }
      ],
      "name": "approveRelease",
      "outputs": [],
      "stateMutability": "nonpayable",
      "type": "function"
    },
    {
      "inputs": [
        {
          "internalType": "uint256",
          "name": "orderId",
          "type": "uint256"
        },
        {
          "internalType": "address payable",
          "name": "_farmer",
          "type": "address"
        }
      ],
      "name": "lockFunds",
      "outputs": [],
      "stateMutability": "payable",
      "type": "function"
    },
    {
      "inputs": [
        {
          "internalType": "uint256",
          "name": "",
          "type": "uint256"
        }
      ],
      "name": "orders",
      "outputs": [
        {
          "internalType": "uint256",
          "name": "totalAmount",
          "type": "uint256"
        },
        {
          "internalType": "address payable",
          "name": "farmer",
          "type": "address"
        },
        {
          "internalType": "address payable",
          "name": "transporter",
          "type": "address"
        },
        {
          "internalType": "address payable",
          "name": "buyer",
          "type": "address"
        },
        {
          "internalType": "bool",
          "name": "deliveryConfirmed",
          "type": "bool"
        },
        {
          "internalType": "bool",
          "name": "escrowReleased",
          "type": "bool"
        }
      ],
      "stateMutability": "view",
      "type": "function"
    },
    {
      "inputs": [
        {
          "internalType": "uint256",
          "name": "orderId",
          "type": "uint256"
        }
      ],
      "name": "penalizeBuyer",
      "outputs": [],
      "stateMutability": "nonpayable",
      "type": "function"
    },
    {
      "inputs": [
        {
          "internalType": "uint256",
          "name": "orderId",
          "type": "uint256"
        }
      ],
      "name": "penalizeFarmer",
      "outputs": [],
      "stateMutability": "nonpayable",
      "type": "function"
    },
    {
      "inputs": [],
      "name": "platformOwner",
      "outputs": [
        {
          "internalType": "address payable",
          "name": "",
          "type": "address"
        }
      ],
      "stateMutability": "view",
      "type": "function"
    },
    {
      "inputs": [
        {
          "internalType": "uint256",
          "name": "orderId",
          "type": "uint256"
        }
      ],
      "name": "releaseEscrow",
      "outputs": [],
      "stateMutability": "nonpayable",
      "type": "function"
    }
  ],
  "bytecode": "0x60806040523480156200001157600080fd5b5060405162001c0038038062001c008339818101604052810190620000379190620000f1565b600160008190555080600160006101000a81548173ffffffffffffffffffffffffffffffffffffffff021916908373ffffffffffffffffffffffffffffffffffffffff1602179055505062000123565b600080fd5b600073ffffffffffffffffffffffffffffffffffffffff82169050919050565b6000620000b9826200008c565b9050919050565b620000cb81620000ac565b8114620000d757600080fd5b50565b600081519050620000eb81620000c0565b92915050565b6000602082840312156200010a576200010962000087565b5b60006200011a84828501620000da565b91505092915050565b611acd80620001336000396000f3fe6080604052600436106100705760003560e01c80637cdf838a1161004e5780637cdf838a146100f2578063803ae1921461011b578063a85c38ef14610137578063ed6531641461017957610070565b80630143804b146100755780631bd2cea11461009e5780634df8ccb1146100c7575b600080fd5b34801561008157600080fd5b5061009c600480360381019061009791906110a0565b6101a2565b005b3480156100aa57600080fd5b506100c560048036038101906100c091906110a0565b6104f8565b005b3480156100d357600080fd5b506100dc610625565b6040516100e9919061110e565b60405180910390f35b3480156100fe57600080fd5b50610119600480360381019061011491906110a0565b61064b565b005b61013560048036038101906101309190611155565b61089f565b005b34801561014357600080fd5b5061015e600480360381019061015991906110a0565b610aea565b604051610170969594939291906111bf565b60405180910390f35b34801561018557600080fd5b506101a0600480360381019061019b91906110a0565b610ba0565b005b600160009054906101000a900473ffffffffffffffffffffffffffffffffffffffff1673ffffffffffffffffffffffffffffffffffffffff163373ffffffffffffffffffffffffffffffffffffffff1614610232576040517f08c379a0000000000000000000000000000000000000000000000000000000008152600401610229906112a3565b60405180910390fd5b600260005403610277576040517f08c379a000000000000000000000000000000000000000000000000000000000815260040161026e9061130f565b60405180910390fd5b60026000819055506000600260008381526020019081526020016000209050600081600001541180156102b957508060030160159054906101000a900460ff16155b6102f8576040517f08c379a00000000000000000000000000000000000000000000000000000000081526004016102ef9061137b565b60405180910390fd5b60018160030160156101000a81548160ff021916908315150217905550600060646055836000015461032a91906113ca565b610334919061143b565b90506000818360000154610348919061146c565b905060008360010160009054906101000a900473ffffffffffffffffffffffffffffffffffffffff1673ffffffffffffffffffffffffffffffffffffffff1683604051610394906114d1565b60006040518083038185875af1925050503d80600081146103d1576040519150601f19603f3d011682016040523d82523d6000602084013e6103d6565b606091505b505090508061041a576040517f08c379a000000000000000000000000000000000000000000000000000000000815260040161041190611558565b60405180910390fd5b6000600160009054906101000a900473ffffffffffffffffffffffffffffffffffffffff1673ffffffffffffffffffffffffffffffffffffffff1683604051610462906114d1565b60006040518083038185875af1925050503d806000811461049f576040519150601f19603f3d011682016040523d82523d6000602084013e6104a4565b606091505b50509050806104e8576040517f08c379a00000000000000000000000000000000000000000000000000000000081526004016104df906115ea565b60405180910390fd5b5050505050600160008190555050565b600160009054906101000a900473ffffffffffffffffffffffffffffffffffffffff1673ffffffffffffffffffffffffffffffffffffffff163373ffffffffffffffffffffffffffffffffffffffff1614610588576040517f08c379a000000000000000000000000000000000000000000000000000000000815260040161057f906112a3565b60405180910390fd5b60016002600083815260200190815260200160002060030160146101000a81548160ff0219169083151502179055503073ffffffffffffffffffffffffffffffffffffffff1663ed653164826040518263ffffffff1660e01b81526004016105f0919061160a565b600060405180830381600087803b15801561060a57600080fd5b505af115801561061e573d6000803e3d6000fd5b5050505050565b600160009054906101000a900473ffffffffffffffffffffffffffffffffffffffff1681565b600160009054906101000a900473ffffffffffffffffffffffffffffffffffffffff1673ffffffffffffffffffffffffffffffffffffffff163373ffffffffffffffffffffffffffffffffffffffff16146106db576040517f08c379a00000000000000000000000000000000000000000000000000000000081526004016106d2906112a3565b60405180910390fd5b600260005403610720576040517f08c379a00000000000000000000000000000000000000000000000000000000081526004016107179061130f565b60405180910390fd5b600260008190555060006002600083815260200190815260200160002090506000816000015411801561076257508060030160159054906101000a900460ff16155b6107a1576040517f08c379a00000000000000000000000000000000000000000000000000000000081526004016107989061137b565b60405180910390fd5b60018160030160156101000a81548160ff02191690831515021790555060008160030160009054906101000a900473ffffffffffffffffffffffffffffffffffffffff1673ffffffffffffffffffffffffffffffffffffffff16826000015460405161080c906114d1565b60006040518083038185875af1925050503d8060008114610849576040519150601f19603f3d011682016040523d82523d6000602084013e61084e565b606091505b5050905080610892576040517f08c379a000000000000000000000000000000000000000000000000000000000815260040161088990611671565b60405180910390fd5b5050600160008190555050565b600034116108e2576040517f08c379a00000000000000000000000000000000000000000000000000000000081526004016108d9906116dd565b60405180910390fd5b600060026000848152602001908152602001600020600001541461093b576040517f08c379a000000000000000000000000000000000000000000000000000000000815260040161093290611749565b60405180910390fd5b6040518060c001604052803481526020018273ffffffffffffffffffffffffffffffffffffffff168152602001600073ffffffffffffffffffffffffffffffffffffffff1681526020013373ffffffffffffffffffffffffffffffffffffffff16815260200160001515815260200160001515815250600260008481526020019081526020016000206000820151816000015560208201518160010160006101000a81548173ffffffffffffffffffffffffffffffffffffffff021916908373ffffffffffffffffffffffffffffffffffffffff16021790555060408201518160020160006101000a81548173ffffffffffffffffffffffffffffffffffffffff021916908373ffffffffffffffffffffffffffffffffffffffff16021790555060608201518160030160006101000a81548173ffffffffffffffffffffffffffffffffffffffff021916908373ffffffffffffffffffffffffffffffffffffffff16021790555060808201518160030160146101000a81548160ff02191690831515021790555060a08201518160030160156101000a81548160ff0219169083151502179055509050505050565b60026020528060005260406000206000915090508060000154908060010160009054906101000a900473ffffffffffffffffffffffffffffffffffffffff16908060020160009054906101000a900473ffffffffffffffffffffffffffffffffffffffff16908060030160009054906101000a900473ffffffffffffffffffffffffffffffffffffffff16908060030160149054906101000a900460ff16908060030160159054906101000a900460ff16905086565b600260005403610be5576040517f08c379a0000000000000000000000000000000000000000000000000000000008152600401610bdc9061130f565b60405180910390fd5b600260008190555060006002600083815260200190815260200160002090506000816000015411610c4b576040517f08c379a0000000000000000000000000000000000000000000000000000000008152600401610c42906117b5565b60405180910390fd5b600115158160030160149054906101000a900460ff16151514610ca3576040517f08c379a0000000000000000000000000000000000000000000000000000000008152600401610c9a90611847565b60405180910390fd5b600015158160030160159054906101000a900460ff16151514610cfb576040517f08c379a0000000000000000000000000000000000000000000000000000000008152600401610cf2906118b3565b60405180910390fd5b60018160030160156101000a81548160ff0219169083151502179055506000606460558360000154610d2d91906113ca565b610d37919061143b565b905060006064600a8460000154610d4e91906113ca565b610d58919061143b565b9050600081838560000154610d6d919061146c565b610d77919061146c565b905060008460010160009054906101000a900473ffffffffffffffffffffffffffffffffffffffff1673ffffffffffffffffffffffffffffffffffffffff1684604051610dc3906114d1565b60006040518083038185875af1925050503d8060008114610e00576040519150601f19603f3d011682016040523d82523d6000602084013e610e05565b606091505b5050905080610e49576040517f08c379a0000000000000000000000000000000000000000000000000000000008152600401610e409061191f565b60405180910390fd5b600073ffffffffffffffffffffffffffffffffffffffff168560020160009054906101000a900473ffffffffffffffffffffffffffffffffffffffff1673ffffffffffffffffffffffffffffffffffffffff1614610f775760008560020160009054906101000a900473ffffffffffffffffffffffffffffffffffffffff1673ffffffffffffffffffffffffffffffffffffffff1684604051610eeb906114d1565b60006040518083038185875af1925050503d8060008114610f28576040519150601f19603f3d011682016040523d82523d6000602084013e610f2d565b606091505b5050905080610f71576040517f08c379a0000000000000000000000000000000000000000000000000000000008152600401610f68906119b1565b60405180910390fd5b50610f86565b8282610f8391906119d1565b91505b6000600160009054906101000a900473ffffffffffffffffffffffffffffffffffffffff1673ffffffffffffffffffffffffffffffffffffffff1683604051610fce906114d1565b60006040518083038185875af1925050503d806000811461100b576040519150601f19603f3d011682016040523d82523d6000602084013e611010565b606091505b5050905080611054576040517f08c379a000000000000000000000000000000000000000000000000000000000815260040161104b90611a77565b60405180910390fd5b505050505050600160008190555050565b600080fd5b6000819050919050565b61107d8161106a565b811461108857600080fd5b50565b60008135905061109a81611074565b92915050565b6000602082840312156110b6576110b5611065565b5b60006110c48482850161108b565b91505092915050565b600073ffffffffffffffffffffffffffffffffffffffff82169050919050565b60006110f8826110cd565b9050919050565b611108816110ed565b82525050565b600060208201905061112360008301846110ff565b92915050565b611132816110ed565b811461113d57600080fd5b50565b60008135905061114f81611129565b92915050565b6000806040838503121561116c5761116b611065565b5b600061117a8582860161108b565b925050602061118b85828601611140565b9150509250929050565b61119e8161106a565b82525050565b60008115159050919050565b6111b9816111a4565b82525050565b600060c0820190506111d46000830189611195565b6111e160208301886110ff565b6111ee60408301876110ff565b6111fb60608301866110ff565b61120860808301856111b0565b61121560a08301846111b0565b979650505050505050565b600082825260208201905092915050565b7f457363726f773a204f6e6c7920706c6174666f726d2063616e2063616c6c207460008201527f6869730000000000000000000000000000000000000000000000000000000000602082015250565b600061128d602383611220565b915061129882611231565b604082019050919050565b600060208201905081810360008301526112bc81611280565b9050919050565b7f5265656e7472616e637947756172643a207265656e7472616e742063616c6c00600082015250565b60006112f9601f83611220565b9150611304826112c3565b602082019050919050565b60006020820190508181036000830152611328816112ec565b9050919050565b7f457363726f773a20496e76616c6964206f726465722073746174650000000000600082015250565b6000611365601b83611220565b91506113708261132f565b602082019050919050565b6000602082019050818103600083015261139481611358565b9050919050565b7f4e487b7100000000000000000000000000000000000000000000000000000000600052601160045260246000fd5b60006113d58261106a565b91506113e08361106a565b92508282026113ee8161106a565b915082820484148315176114055761140461139b565b5b5092915050565b7f4e487b7100000000000000000000000000000000000000000000000000000000600052601260045260246000fd5b60006114468261106a565b91506114518361106a565b9250826114615761146061140c565b5b828204905092915050565b60006114778261106a565b91506114828361106a565b925082820390508181111561149a5761149961139b565b5b92915050565b600081905092915050565b50565b60006114bb6000836114a0565b91506114c6826114ab565b600082019050919050565b60006114dc826114ae565b9150819050919050565b7f457363726f773a204661726d657220636f6d70656e736174696f6e206661696c60008201527f6564000000000000000000000000000000000000000000000000000000000000602082015250565b6000611542602283611220565b915061154d826114e6565b604082019050919050565b6000602082019050818103600083015261157181611535565b9050919050565b7f457363726f773a20506c6174666f726d20636f6d70656e736174696f6e20666160008201527f696c656400000000000000000000000000000000000000000000000000000000602082015250565b60006115d4602483611220565b91506115df82611578565b604082019050919050565b60006020820190508181036000830152611603816115c7565b9050919050565b600060208201905061161f6000830184611195565b92915050565b7f457363726f773a20526566756e64206661696c65640000000000000000000000600082015250565b600061165b601583611220565b915061166682611625565b602082019050919050565b6000602082019050818103600083015261168a8161164e565b9050919050565b7f457363726f773a204d7573742073656e64204d4154494320746f206c6f636b00600082015250565b60006116c7601f83611220565b91506116d282611691565b602082019050919050565b600060208201905081810360008301526116f6816116ba565b9050919050565b7f457363726f773a204f7264657220616c72656164792065786973747300000000600082015250565b6000611733601c83611220565b915061173e826116fd565b602082019050919050565b6000602082019050818103600083015261176281611726565b9050919050565b7f457363726f773a204f7264657220646f6573206e6f7420657869737400000000600082015250565b600061179f601c83611220565b91506117aa82611769565b602082019050919050565b600060208201905081810360008301526117ce81611792565b9050919050565b7f457363726f773a2044656c6976657279206973206e6f742079657420636f6e6660008201527f69726d6564000000000000000000000000000000000000000000000000000000602082015250565b6000611831602583611220565b915061183c826117d5565b604082019050919050565b6000602082019050818103600083015261186081611824565b9050919050565b7f457363726f773a2046756e647320616c72656164792072656c65617365640000600082015250565b600061189d601e83611220565b91506118a882611867565b602082019050919050565b600060208201905081810360008301526118cc81611890565b9050919050565b7f457363726f773a204661696c656420746f2073656e6420746f206661726d6572600082015250565b6000611909602083611220565b9150611914826118d3565b602082019050919050565b60006020820190508181036000830152611938816118fc565b9050919050565b7f457363726f773a204661696c656420746f2073656e6420746f207472616e737060008201527f6f72746572000000000000000000000000000000000000000000000000000000602082015250565b600061199b602583611220565b91506119a68261193f565b604082019050919050565b600060208201905081810360008301526119ca8161198e565b9050919050565b60006119dc8261106a565b91506119e78361106a565b92508282019050808211156119ff576119fe61139b565b5b92915050565b7f457363726f773a204661696c656420746f2073656e6420746f20706c6174666f60008201527f726d206f776e6572000000000000000000000000000000000000000000000000602082015250565b6000611a61602883611220565b9150611a6c82611a05565b604082019050919050565b60006020820190508181036000830152611a9081611a54565b905091905056fea264697066735822122089edd26273d36ddde4e0bcaee9da7e30efed1c0241d5624f79d57cbf1932846864736f6c63430008140033",
  "linkReferences": {},
  "deployedLinkReferences": {}
}