{
  "_format": "hh-sol-artifact-1",
  "contractName": "SupplyChainEscrow",
  "sourceName": "contracts/SupplyChainEscrow.sol",
  "abi": [
    {
      "inputs": [
        {
          "internalType": "address payable",
          "name": "_platformOwner",
          "type": "address"
        }
      ],
      "stateMutability": "nonpayable",
      "type": "constructor"
    },
    {
      "inputs": [
        {
          "internalType": "uint256",
          "name": "orderId",
          "type": "uint256"
        }
      ],
      "name": "approveRelease",
      "outputs": [],
      "stateMutability": "nonpayable",
      "type": "function"
    },
    {
      "inputs": [
        {
          "internalType": "uint256",
          "name": "orderId",
          "type": "uint256"
        },
        {
          "internalType": "address payable",
          "name": "_farmer",
          "type": "address"
        }
      ],
      "name": "lockFunds",
      "outputs": [],
      "stateMutability": "payable",
      "type": "function"
    },
    {
      "inputs": [
        {
          "internalType": "uint256",
          "name": "",
          "type": "uint256"
        }
      ],
      "name": "orders",
      "outputs": [
        {
          "internalType": "uint256",
          "name": "totalAmount",
          "type": "uint256"
        },
        {
          "internalType": "address payable",
          "name": "farmer",
          "type": "address"
        },
        {
          "internalType": "address payable",
          "name": "transporter",
          "type": "address"
        },
        {
          "internalType": "bool",
          "name": "deliveryConfirmed",
          "type": "bool"
        },
        {
          "internalType": "bool",
          "name": "escrowReleased",
          "type": "bool"
        }
      ],
      "stateMutability": "view",
      "type": "function"
    },
    {
      "inputs": [],
      "name": "platformOwner",
      "outputs": [
        {
          "internalType": "address payable",
          "name": "",
          "type": "address"
        }
      ],
      "stateMutability": "view",
      "type": "function"
    },
    {
      "inputs": [
        {
          "internalType": "uint256",
          "name": "orderId",
          "type": "uint256"
        }
      ],
      "name": "releaseEscrow",
      "outputs": [],
      "stateMutability": "nonpayable",
      "type": "function"
    }
  ],
  "bytecode": "0x60806040523480156200001157600080fd5b5060405162001228380380620012288339818101604052810190620000379190620000f1565b600160008190555080600160006101000a81548173ffffffffffffffffffffffffffffffffffffffff021916908373ffffffffffffffffffffffffffffffffffffffff1602179055505062000123565b600080fd5b600073ffffffffffffffffffffffffffffffffffffffff82169050919050565b6000620000b9826200008c565b9050919050565b620000cb81620000ac565b8114620000d757600080fd5b50565b600081519050620000eb81620000c0565b92915050565b6000602082840312156200010a576200010962000087565b5b60006200011a84828501620000da565b91505092915050565b6110f580620001336000396000f3fe60806040526004361061004a5760003560e01c80631bd2cea11461004f5780634df8ccb114610078578063803ae192146100a3578063a85c38ef146100bf578063ed65316414610100575b600080fd5b34801561005b57600080fd5b5061007660048036038101906100719190610964565b610129565b005b34801561008457600080fd5b5061008d6101c6565b60405161009a91906109d2565b60405180910390f35b6100bd60048036038101906100b89190610a19565b6101ec565b005b3480156100cb57600080fd5b506100e660048036038101906100e19190610964565b6103d4565b6040516100f7959493929190610a83565b60405180910390f35b34801561010c57600080fd5b5061012760048036038101906101229190610964565b610464565b005b60016002600083815260200190815260200160002060020160146101000a81548160ff0219169083151502179055503073ffffffffffffffffffffffffffffffffffffffff1663ed653164826040518263ffffffff1660e01b81526004016101919190610ad6565b600060405180830381600087803b1580156101ab57600080fd5b505af11580156101bf573d6000803e3d6000fd5b5050505050565b600160009054906101000a900473ffffffffffffffffffffffffffffffffffffffff1681565b6000341161022f576040517f08c379a000000000000000000000000000000000000000000000000000000000815260040161022690610b4e565b60405180910390fd5b6000600260008481526020019081526020016000206000015414610288576040517f08c379a000000000000000000000000000000000000000000000000000000000815260040161027f90610bba565b60405180910390fd5b6040518060a001604052803481526020018273ffffffffffffffffffffffffffffffffffffffff168152602001600073ffffffffffffffffffffffffffffffffffffffff16815260200160001515815260200160001515815250600260008481526020019081526020016000206000820151816000015560208201518160010160006101000a81548173ffffffffffffffffffffffffffffffffffffffff021916908373ffffffffffffffffffffffffffffffffffffffff16021790555060408201518160020160006101000a81548173ffffffffffffffffffffffffffffffffffffffff021916908373ffffffffffffffffffffffffffffffffffffffff16021790555060608201518160020160146101000a81548160ff02191690831515021790555060808201518160020160156101000a81548160ff0219169083151502179055509050505050565b60026020528060005260406000206000915090508060000154908060010160009054906101000a900473ffffffffffffffffffffffffffffffffffffffff16908060020160009054906101000a900473ffffffffffffffffffffffffffffffffffffffff16908060020160149054906101000a900460ff16908060020160159054906101000a900460ff16905085565b6002600054036104a9576040517f08c379a00000000000000000000000000000000000000000000000000000000081526004016104a090610c26565b60405180910390fd5b60026000819055506000600260008381526020019081526020016000209050600081600001541161050f576040517f08c379a000000000000000000000000000000000000000000000000000000000815260040161050690610c92565b60405180910390fd5b600115158160020160149054906101000a900460ff16151514610567576040517f08c379a000000000000000000000000000000000000000000000000000000000815260040161055e90610d24565b60405180910390fd5b600015158160020160159054906101000a900460ff161515146105bf576040517f08c379a00000000000000000000000000000000000000000000000000000000081526004016105b690610d90565b60405180910390fd5b60018160020160156101000a81548160ff02191690831515021790555060006064605883600001546105f19190610ddf565b6105fb9190610e50565b905060006064600a84600001546106129190610ddf565b61061c9190610e50565b90506000818385600001546106319190610e81565b61063b9190610e81565b905060008460010160009054906101000a900473ffffffffffffffffffffffffffffffffffffffff1673ffffffffffffffffffffffffffffffffffffffff168460405161068790610ee6565b60006040518083038185875af1925050503d80600081146106c4576040519150601f19603f3d011682016040523d82523d6000602084013e6106c9565b606091505b505090508061070d576040517f08c379a000000000000000000000000000000000000000000000000000000000815260040161070490610f47565b60405180910390fd5b600073ffffffffffffffffffffffffffffffffffffffff168560020160009054906101000a900473ffffffffffffffffffffffffffffffffffffffff1673ffffffffffffffffffffffffffffffffffffffff161461083b5760008560020160009054906101000a900473ffffffffffffffffffffffffffffffffffffffff1673ffffffffffffffffffffffffffffffffffffffff16846040516107af90610ee6565b60006040518083038185875af1925050503d80600081146107ec576040519150601f19603f3d011682016040523d82523d6000602084013e6107f1565b606091505b5050905080610835576040517f08c379a000000000000000000000000000000000000000000000000000000000815260040161082c90610fd9565b60405180910390fd5b5061084a565b82826108479190610ff9565b91505b6000600160009054906101000a900473ffffffffffffffffffffffffffffffffffffffff1673ffffffffffffffffffffffffffffffffffffffff168360405161089290610ee6565b60006040518083038185875af1925050503d80600081146108cf576040519150601f19603f3d011682016040523d82523d6000602084013e6108d4565b606091505b5050905080610918576040517f08c379a000000000000000000000000000000000000000000000000000000000815260040161090f9061109f565b60405180910390fd5b505050505050600160008190555050565b600080fd5b6000819050919050565b6109418161092e565b811461094c57600080fd5b50565b60008135905061095e81610938565b92915050565b60006020828403121561097a57610979610929565b5b60006109888482850161094f565b91505092915050565b600073ffffffffffffffffffffffffffffffffffffffff82169050919050565b60006109bc82610991565b9050919050565b6109cc816109b1565b82525050565b60006020820190506109e760008301846109c3565b92915050565b6109f6816109b1565b8114610a0157600080fd5b50565b600081359050610a13816109ed565b92915050565b60008060408385031215610a3057610a2f610929565b5b6000610a3e8582860161094f565b9250506020610a4f85828601610a04565b9150509250929050565b610a628161092e565b82525050565b60008115159050919050565b610a7d81610a68565b82525050565b600060a082019050610a986000830188610a59565b610aa560208301876109c3565b610ab260408301866109c3565b610abf6060830185610a74565b610acc6080830184610a74565b9695505050505050565b6000602082019050610aeb6000830184610a59565b92915050565b600082825260208201905092915050565b7f457363726f773a204d7573742073656e64204d4154494320746f206c6f636b00600082015250565b6000610b38601f83610af1565b9150610b4382610b02565b602082019050919050565b60006020820190508181036000830152610b6781610b2b565b9050919050565b7f457363726f773a204f7264657220616c72656164792065786973747300000000600082015250565b6000610ba4601c83610af1565b9150610baf82610b6e565b602082019050919050565b60006020820190508181036000830152610bd381610b97565b9050919050565b7f5265656e7472616e637947756172643a207265656e7472616e742063616c6c00600082015250565b6000610c10601f83610af1565b9150610c1b82610bda565b602082019050919050565b60006020820190508181036000830152610c3f81610c03565b9050919050565b7f457363726f773a204f7264657220646f6573206e6f7420657869737400000000600082015250565b6000610c7c601c83610af1565b9150610c8782610c46565b602082019050919050565b60006020820190508181036000830152610cab81610c6f565b9050919050565b7f457363726f773a2044656c6976657279206973206e6f742079657420636f6e6660008201527f69726d6564000000000000000000000000000000000000000000000000000000602082015250565b6000610d0e602583610af1565b9150610d1982610cb2565b604082019050919050565b60006020820190508181036000830152610d3d81610d01565b9050919050565b7f457363726f773a2046756e647320616c72656164792072656c65617365640000600082015250565b6000610d7a601e83610af1565b9150610d8582610d44565b602082019050919050565b60006020820190508181036000830152610da981610d6d565b9050919050565b7f4e487b7100000000000000000000000000000000000000000000000000000000600052601160045260246000fd5b6000610dea8261092e565b9150610df58361092e565b9250828202610e038161092e565b91508282048414831517610e1a57610e19610db0565b5b5092915050565b7f4e487b7100000000000000000000000000000000000000000000000000000000600052601260045260246000fd5b6000610e5b8261092e565b9150610e668361092e565b925082610e7657610e75610e21565b5b828204905092915050565b6000610e8c8261092e565b9150610e978361092e565b9250828203905081811115610eaf57610eae610db0565b5b92915050565b600081905092915050565b50565b6000610ed0600083610eb5565b9150610edb82610ec0565b600082019050919050565b6000610ef182610ec3565b9150819050919050565b7f457363726f773a204661696c656420746f2073656e6420746f206661726d6572600082015250565b6000610f31602083610af1565b9150610f3c82610efb565b602082019050919050565b60006020820190508181036000830152610f6081610f24565b9050919050565b7f457363726f773a204661696c656420746f2073656e6420746f207472616e737060008201527f6f72746572000000000000000000000000000000000000000000000000000000602082015250565b6000610fc3602583610af1565b9150610fce82610f67565b604082019050919050565b60006020820190508181036000830152610ff281610fb6565b9050919050565b60006110048261092e565b915061100f8361092e565b925082820190508082111561102757611026610db0565b5b92915050565b7f457363726f773a204661696c656420746f2073656e6420746f20706c6174666f60008201527f726d206f776e6572000000000000000000000000000000000000000000000000602082015250565b6000611089602883610af1565b91506110948261102d565b604082019050919050565b600060208201905081810360008301526110b88161107c565b905091905056fea2646970667358221220a2726a4d61126257d243e5a85f89e0b687b99d026611e8f46e8ce4258796e06864736f6c63430008140033",
  "linkReferences": {},
  "deployedLinkReferences": {}
}